{
  "contractName": "ProofOfExistence",
  "abi": [
    {
      "constant": true,
      "inputs": [],
      "name": "owner",
      "outputs": [
        {
          "name": "",
          "type": "address"
        }
      ],
      "payable": false,
      "stateMutability": "view",
      "type": "function"
    },
    {
      "inputs": [],
      "payable": false,
      "stateMutability": "nonpayable",
      "type": "constructor"
    },
    {
      "anonymous": false,
      "inputs": [
        {
          "indexed": true,
          "name": "id",
          "type": "uint256"
        },
        {
          "indexed": false,
          "name": "documentHash",
          "type": "bytes32"
        }
      ],
      "name": "ProofCreated",
      "type": "event"
    },
    {
      "constant": false,
      "inputs": [
        {
          "name": "id",
          "type": "uint256"
        },
        {
          "name": "documentHash",
          "type": "bytes32"
        }
      ],
      "name": "notarizeHash",
      "outputs": [
        {
          "name": "",
          "type": "bool"
        }
      ],
      "payable": false,
      "stateMutability": "nonpayable",
      "type": "function"
    },
    {
      "constant": true,
      "inputs": [
        {
          "name": "id",
          "type": "uint256"
        },
        {
          "name": "documentHash",
          "type": "bytes32"
        }
      ],
      "name": "doesProofExist",
      "outputs": [
        {
          "name": "",
          "type": "bool"
        }
      ],
      "payable": false,
      "stateMutability": "view",
      "type": "function"
    }
  ],
  "bytecode": "0x6060604052341561000f57600080fd5b336000806101000a81548173ffffffffffffffffffffffffffffffffffffffff021916908373ffffffffffffffffffffffffffffffffffffffff1602179055506102a58061005e6000396000f300606060405260043610610057576000357c0100000000000000000000000000000000000000000000000000000000900463ffffffff16806315ca41c31461005c5780638da5cb5b146100a4578063af519bf5146100f9575b600080fd5b341561006757600080fd5b61008a600480803590602001909190803560001916906020019091905050610141565b604051808215151515815260200191505060405180910390f35b34156100af57600080fd5b6100b761022c565b604051808273ffffffffffffffffffffffffffffffffffffffff1673ffffffffffffffffffffffffffffffffffffffff16815260200191505060405180910390f35b341561010457600080fd5b610127600480803590602001909190803560001916906020019091905050610251565b604051808215151515815260200191505060405180910390f35b60008060009054906101000a900473ffffffffffffffffffffffffffffffffffffffff1673ffffffffffffffffffffffffffffffffffffffff163373ffffffffffffffffffffffffffffffffffffffff1614151561019e57600080fd5b8260006001600083815260200190815260200160002054600019161415156101c557600080fd5b82600160008681526020019081526020016000208160001916905550837ffbbf8dad2632e75bc114426ca0d629c0beb6c4531599e68d148c70fbb4ffae6f8460405180826000191660001916815260200191505060405180910390a2600191505092915050565b6000809054906101000a900473ffffffffffffffffffffffffffffffffffffffff1681565b60008160001916600160008581526020019081526020016000205460001916149050929150505600a165627a7a72305820b5d79afd9f5176874ae55c09f63ef4586e8d180d42eb161b71661ea4b7ede3b60029",
  "source": "pragma solidity ^0.4.18;\n\ncontract ProofOfExistence {\n    \n    event ProofCreated(\n        uint256 indexed id,\n        bytes32 documentHash\n    );\n\n    address public owner;\n  \n    mapping (uint256 => bytes32) hashesById;\n\n    modifier onlyOwner() {\n        require(msg.sender == owner);\n        _;\n    }\n\n    modifier noHashExistsYet(uint256 id) {\n        require(hashesById[id] == \"\");\n        _;\n    }\n\n    function ProofOfExistence() public {\n        owner = msg.sender;\n    }\n\n    function notarizeHash(uint256 id, bytes32 documentHash) onlyOwner noHashExistsYet(id) public returns(bool){\n        hashesById[id] = documentHash;\n\n        ProofCreated(id, documentHash);\n        \n        return true;\n    }\n\n    function doesProofExist(uint256 id, bytes32 documentHash) public view returns (bool) {\n        return hashesById[id] == documentHash;\n    }\n}",
  "sourcePath": "/Users/Mac/Documents/COMP992/zlto_contract/contracts/Zlto.sol",
  "compiler": {
    "name": "solc",
    "version": "0.4.19+commit.c4cbbb05.Emscripten.clang"
  },
  "schemaVersion": "1.0.1",
  "updatedAt": "2018-05-03T16:25:44.838Z"
}