{
  "contractName": "Zlto",
  "abi": [
    {
      "constant": true,
      "inputs": [
        {
          "name": "",
          "type": "uint256"
        }
      ],
      "name": "hashesById",
      "outputs": [
        {
          "name": "",
          "type": "bytes32"
        }
      ],
      "payable": false,
      "stateMutability": "view",
      "type": "function"
    },
    {
      "constant": true,
      "inputs": [],
      "name": "owner",
      "outputs": [
        {
          "name": "",
          "type": "address"
        }
      ],
      "payable": false,
      "stateMutability": "view",
      "type": "function"
    },
    {
      "inputs": [],
      "payable": false,
      "stateMutability": "nonpayable",
      "type": "constructor"
    },
    {
      "anonymous": false,
      "inputs": [
        {
          "indexed": true,
          "name": "id",
          "type": "uint256"
        },
        {
          "indexed": false,
          "name": "documentHash",
          "type": "bytes32"
        }
      ],
      "name": "ProofCreated",
      "type": "event"
    },
    {
      "constant": false,
      "inputs": [],
      "name": "ProofOfExistence",
      "outputs": [],
      "payable": false,
      "stateMutability": "nonpayable",
      "type": "function"
    },
    {
      "constant": false,
      "inputs": [
        {
          "name": "id",
          "type": "uint256"
        },
        {
          "name": "documentHash",
          "type": "bytes32"
        }
      ],
      "name": "notarizeHash",
      "outputs": [
        {
          "name": "",
          "type": "bool"
        }
      ],
      "payable": false,
      "stateMutability": "nonpayable",
      "type": "function"
    },
    {
      "constant": true,
      "inputs": [
        {
          "name": "id",
          "type": "uint256"
        },
        {
          "name": "documentHash",
          "type": "bytes32"
        }
      ],
      "name": "doesProofExist",
      "outputs": [
        {
          "name": "",
          "type": "bool"
        }
      ],
      "payable": false,
      "stateMutability": "view",
      "type": "function"
    }
  ],
  "bytecode": "0x6060604052341561000f57600080fd5b336000806101000a81548173ffffffffffffffffffffffffffffffffffffffff021916908373ffffffffffffffffffffffffffffffffffffffff1602179055506103418061005e6000396000f30060606040526004361061006d576000357c0100000000000000000000000000000000000000000000000000000000900463ffffffff16806315ca41c314610072578063524f00cb146100ba5780638da5cb5b146100f95780639801cb8e1461014e578063af519bf514610163575b600080fd5b341561007d57600080fd5b6100a06004808035906020019091908035600019169060200190919050506101ab565b604051808215151515815260200191505060405180910390f35b34156100c557600080fd5b6100db600480803590602001909190505061026e565b60405180826000191660001916815260200191505060405180910390f35b341561010457600080fd5b61010c610286565b604051808273ffffffffffffffffffffffffffffffffffffffff1673ffffffffffffffffffffffffffffffffffffffff16815260200191505060405180910390f35b341561015957600080fd5b6101616102ab565b005b341561016e57600080fd5b6101916004808035906020019091908035600019169060200190919050506102ed565b604051808215151515815260200191505060405180910390f35b60008060009054906101000a900473ffffffffffffffffffffffffffffffffffffffff1673ffffffffffffffffffffffffffffffffffffffff163373ffffffffffffffffffffffffffffffffffffffff1614151561020857600080fd5b81600160008581526020019081526020016000208160001916905550827ffbbf8dad2632e75bc114426ca0d629c0beb6c4531599e68d148c70fbb4ffae6f8360405180826000191660001916815260200191505060405180910390a26001905092915050565b60016020528060005260406000206000915090505481565b6000809054906101000a900473ffffffffffffffffffffffffffffffffffffffff1681565b336000806101000a81548173ffffffffffffffffffffffffffffffffffffffff021916908373ffffffffffffffffffffffffffffffffffffffff160217905550565b60008160001916600160008581526020019081526020016000205460001916149050929150505600a165627a7a723058200280dd72149f10dba9f70811bb0b9fb7237c8bdeec7ad71d56048bc0b5a09e6b0029",
  "source": "pragma solidity ^0.4.18;\n\ncontract Zlto {\n    function Zlto() public {\n        owner = msg.sender;\n    }\n    \n    event ProofCreated(\n        uint256 indexed id,\n        bytes32 documentHash\n    );\n\n    address public owner;\n  \n    mapping (uint256 => bytes32) public hashesById;\n\n    modifier onlyOwner() {\n        require(msg.sender == owner);\n        _;\n    }\n\n    modifier noHashExistsYet(uint256 id) {\n        require(hashesById[id] == \"\");\n        _;\n    }\n\n    function ProofOfExistence() public {\n        owner = msg.sender;\n    }\n\n    function notarizeHash(uint256 id, bytes32 documentHash) onlyOwner public returns(bool){\n        hashesById[id] = documentHash;\n\n        ProofCreated(id, documentHash);\n        \n        return true;\n    }\n\n    function doesProofExist(uint256 id, bytes32 documentHash) public view returns (bool) {\n        return hashesById[id] == documentHash;\n    }\n}",
  "sourcePath": "/Users/Mac/Documents/COMP992/zlto_node/eth/zlto_truffle/contracts/Zlto.sol",
  "compiler": {
    "name": "solc",
    "version": "0.4.19+commit.c4cbbb05.Emscripten.clang"
  },
  "schemaVersion": "1.0.1",
  "updatedAt": "2018-05-03T18:30:41.024Z"
}