{
  "contractName": "Zlto",
  "abi": [
    {
      "constant": true,
      "inputs": [
        {
          "name": "",
          "type": "uint256"
        }
      ],
      "name": "hashesById",
      "outputs": [
        {
          "name": "",
          "type": "bytes32"
        }
      ],
      "payable": false,
      "stateMutability": "view",
      "type": "function",
      "signature": "0x524f00cb"
    },
    {
      "constant": true,
      "inputs": [],
      "name": "owner",
      "outputs": [
        {
          "name": "",
          "type": "address"
        }
      ],
      "payable": false,
      "stateMutability": "view",
      "type": "function",
      "signature": "0x8da5cb5b"
    },
    {
      "inputs": [],
      "payable": false,
      "stateMutability": "nonpayable",
      "type": "constructor",
      "signature": "constructor"
    },
    {
      "anonymous": false,
      "inputs": [
        {
          "indexed": true,
          "name": "id",
          "type": "uint256"
        },
        {
          "indexed": false,
          "name": "documentHash",
          "type": "bytes32"
        }
      ],
      "name": "DocumentAdded",
      "type": "event",
      "signature": "0x67f7dd6bc0fdb45214ba743fb1ee72780d369d4670337a360cfd22abcfd9a714"
    },
    {
      "constant": false,
      "inputs": [],
      "name": "ProofOfExistence",
      "outputs": [],
      "payable": false,
      "stateMutability": "nonpayable",
      "type": "function",
      "signature": "0x9801cb8e"
    },
    {
      "constant": false,
      "inputs": [
        {
          "name": "id",
          "type": "uint256"
        },
        {
          "name": "documentHash",
          "type": "bytes32"
        }
      ],
      "name": "notarizeHash",
      "outputs": [
        {
          "name": "",
          "type": "bool"
        }
      ],
      "payable": false,
      "stateMutability": "nonpayable",
      "type": "function",
      "signature": "0x15ca41c3"
    },
    {
      "constant": false,
      "inputs": [
        {
          "name": "idArray",
          "type": "uint256[]"
        },
        {
          "name": "hashArray",
          "type": "bytes32[]"
        }
      ],
      "name": "notarizeHashes",
      "outputs": [
        {
          "name": "",
          "type": "bool"
        }
      ],
      "payable": false,
      "stateMutability": "nonpayable",
      "type": "function",
      "signature": "0x13dcc0ea"
    },
    {
      "constant": true,
      "inputs": [
        {
          "name": "id",
          "type": "uint256"
        },
        {
          "name": "documentHash",
          "type": "bytes32"
        }
      ],
      "name": "doesProofExist",
      "outputs": [
        {
          "name": "",
          "type": "bool"
        }
      ],
      "payable": false,
      "stateMutability": "view",
      "type": "function",
      "signature": "0xaf519bf5"
    }
  ],
  "bytecode": "0x608060405234801561001057600080fd5b50336000806101000a81548173ffffffffffffffffffffffffffffffffffffffff021916908373ffffffffffffffffffffffffffffffffffffffff160217905550610633806100606000396000f300608060405260043610610078576000357c0100000000000000000000000000000000000000000000000000000000900463ffffffff16806313dcc0ea1461007d57806315ca41c31461013e578063524f00cb146101915780638da5cb5b146101da5780639801cb8e14610231578063af519bf514610248575b600080fd5b34801561008957600080fd5b50610124600480360381019080803590602001908201803590602001908080602002602001604051908101604052809392919081815260200183836020028082843782019150505050505091929192908035906020019082018035906020019080806020026020016040519081016040528093929190818152602001838360200280828437820191505050505050919291929050505061029b565b604051808215151515815260200191505060405180910390f35b34801561014a57600080fd5b50610177600480360381019080803590602001909291908035600019169060200190929190505050610442565b604051808215151515815260200191505060405180910390f35b34801561019d57600080fd5b506101bc60048036038101908080359060200190929190505050610560565b60405180826000191660001916815260200191505060405180910390f35b3480156101e657600080fd5b506101ef610578565b604051808273ffffffffffffffffffffffffffffffffffffffff1673ffffffffffffffffffffffffffffffffffffffff16815260200191505060405180910390f35b34801561023d57600080fd5b5061024661059d565b005b34801561025457600080fd5b506102816004803603810190808035906020019092919080356000191690602001909291905050506105df565b604051808215151515815260200191505060405180910390f35b6000806000809054906101000a900473ffffffffffffffffffffffffffffffffffffffff1673ffffffffffffffffffffffffffffffffffffffff163373ffffffffffffffffffffffffffffffffffffffff161415156102f957600080fd5b6000809054906101000a900473ffffffffffffffffffffffffffffffffffffffff1673ffffffffffffffffffffffffffffffffffffffff163373ffffffffffffffffffffffffffffffffffffffff1614151561035457600080fd5b8251845114151561036457600080fd5b600090505b835181101561043757828181518110151561038057fe5b9060200190602002015160016000868481518110151561039c57fe5b906020019060200201518152602001908152602001600020816000191690555083818151811015156103ca57fe5b906020019060200201517f67f7dd6bc0fdb45214ba743fb1ee72780d369d4670337a360cfd22abcfd9a714848381518110151561040357fe5b9060200190602002015160405180826000191660001916815260200191505060405180910390a28080600101915050610369565b600191505092915050565b60008060009054906101000a900473ffffffffffffffffffffffffffffffffffffffff1673ffffffffffffffffffffffffffffffffffffffff163373ffffffffffffffffffffffffffffffffffffffff1614151561049f57600080fd5b6000809054906101000a900473ffffffffffffffffffffffffffffffffffffffff1673ffffffffffffffffffffffffffffffffffffffff163373ffffffffffffffffffffffffffffffffffffffff161415156104fa57600080fd5b81600160008581526020019081526020016000208160001916905550827f67f7dd6bc0fdb45214ba743fb1ee72780d369d4670337a360cfd22abcfd9a7148360405180826000191660001916815260200191505060405180910390a26001905092915050565b60016020528060005260406000206000915090505481565b6000809054906101000a900473ffffffffffffffffffffffffffffffffffffffff1681565b336000806101000a81548173ffffffffffffffffffffffffffffffffffffffff021916908373ffffffffffffffffffffffffffffffffffffffff160217905550565b60008160001916600160008581526020019081526020016000205460001916149050929150505600a165627a7a72305820de30d4e4a66d3c7802746b00ad8be2dae62e1af72367c9e51692544a1f7faac90029",
  "source": "pragma solidity ^0.4.18;\n\ncontract Zlto {\n    constructor() public {\n        owner = msg.sender;\n    }\n    \n    event DocumentAdded(\n        uint256 indexed id,\n        bytes32 documentHash\n    );\n\n    address public owner;\n  \n    mapping (uint256 => bytes32) public hashesById;\n\n    modifier onlyOwner() {\n        require(msg.sender == owner);\n        _;\n    }\n\n    modifier noHashExistsYet(uint256 id) {\n        require(hashesById[id] == \"\");\n        _;\n    }\n\n    function ProofOfExistence() public {\n        owner = msg.sender;\n    }\n\n    function notarizeHash(uint256 id, bytes32 documentHash) onlyOwner public returns(bool){\n        require(msg.sender == owner);\n        hashesById[id] = documentHash;\n        emit DocumentAdded(id, documentHash);\n\n        return true;\n    }\n\n    function notarizeHashes(uint256[] idArray, bytes32[] hashArray) onlyOwner public returns(bool) {\n        require(msg.sender == owner);\n        require(idArray.length == hashArray.length);\n\n        for (uint i=0; i<idArray.length; i++) {\n            hashesById[idArray[i]] = hashArray[i];\n\n            emit DocumentAdded(idArray[i], hashArray[i]);\n        }\n        return true;\n    }\n\n    function doesProofExist(uint256 id, bytes32 documentHash) public view returns (bool) {\n        return hashesById[id] == documentHash;\n    }\n}",
  "sourcePath": "/Users/Mac/Documents/COMP992/zlto_node/eth/zlto_truffle/contracts/Zlto.sol",
  "compiler": {
    "name": "solc",
    "version": "0.4.24+commit.e67f0147.Emscripten.clang"
  },
  "schemaVersion": "3.0.0-beta.1",
  "updatedAt": "2018-10-18T19:46:08.978Z"
}